:020000040000FA
:10000000006ADFEF00F0008A00AA009A00B603D071
:10001000008640D827E2080E056E50D80436052E1B
:10002000FCD700AA2ED858D851D800BA1BD821D84E
:100030000450D890DCEF00F0008A00AA009A00B4C7
:1000400005D0FE0B016E0084D8900AD000B805D010
:10005000086E00881FD806E2085023D803E200AAE1
:10006000DCEF00F00ED838D800940098009601D844
:10007000F7D71EC0EAFF1C3CE96EE9881A50EC1263
:1000800008D01EC0EAFF1CC0E9FF1A1CEE16E98862
:10009000EC161200EEDF20D8F4DF18D8015000B6BD
:1000A0000109046E080E056E0436D8B0E2DFD8A050
:1000B000E8DF12D80BD8052EF7D7DBDF0DD81EC02E
:1000C000EAFF1CC0E9FF1A50EF14FF0F1FC0EAFF40
:1000D0001DC0E9FF1B1CDAD71FC0EAFF1D3CE96EFB
:1000E000E9881B50CCD7056A046EE86A0406055AF5
:1000F000D8A0DCEF00F0030E036EE70E02D8F5D7B0
:10010000036AFD0F026E01D00206040000D0E86A07
:10011000035AFAE21200D89003320232FF0FFBE2D8
:100120000250DCEF00F0046E010E00D00A6E0550A4
:10013000035C02E10450025C040ED8B0010ED8B496
:10014000020E0A14D8A4FF0EDCEF00F0076A066A5C
:10015000100E086E0334063607360450065E05504E
:10016000075A05E20450062605500722D8900236A9
:100170000336082EEFD70250DCEF00F004500802DF
:10018000F3CF06F0F4CF07F005500902F3CF02F0E9
:10019000F4CF03F00802F3500726F4500222E86A75
:1001A000032204500902F3500726F4500222E86AA1
:1001B00003220650DCEF00F00001040012001C0EC8
:1001C0002E6E700ED36E9B8C92680F0EC16E010E58
:1001D000936E946A400E956E070E966EF26AF18CDD
:1001E000CA94816A826A836A846A390E346E380ED0
:1001F000356E82869496818A939A010E056EF40E6E
:1002000073DF09EC01F049EC01F0040E2F6E5DEF95
:1002100004F081989398818893988196939681941D
:100220009394E20E406EE1EC03F0A20E406EE1EC1E
:1002300003F0A00E406EE1EC03F0C80E406EE1EC5E
:1002400003F0A60E406EE1EC03F0240E406EE1ECEC
:1002500003F0810E406EE1EC03F02EC040F0E1ECC3
:1002600003F02F0E406EE1EC03F0AF0E406EE1ECB8
:1002700003F081849394120081949394810E406ED4
:10028000E1EC03F02EC040F0E1EC03F081849394A4
:10029000120081949394406A416A426A436A446AB4
:1002A000456A3A6A0400090E3A5CD8B077EF01F06B
:1002B00081949394B00E3A24406EE1EC03F0100E5A
:1002C000406EE1EC03F0406AE1EC03F0818493942A
:1002D0002D6A0400160E2D5CD8B074EF01F0BCEC52
:1002E00002F02D2AD8A0F5D73A2AD8A0DBD78184EE
:1002F00093941200396A3A6A7FEC01F012008194FB
:100300009394B00E3A24406EE1EC03F0120E3924BF
:10031000146E156A1536060E1426000E15220F0EE1
:100320001414376E120E3924146E156A1536060E23
:100330001426000E1522F00E1414316E31C002F096
:10034000036A040EEBDE316E100E3124406EE1ECD8
:1003500003F0000E3724406EE1EC03F081849394A7
:10036000120081949394A70E406EE1EC03F0818417
:100370009394120081949394A70E406EE1EC03F0E5
:1003800081849394120081949394A60E406EE1ECC4
:1003900003F081849394120081949394AF0E406E85
:1003A000E1EC03F081849394120081949394AE0E57
:1003B000406EE1EC03F081849394120004004050FD
:1003C0000008D8A4F1EF01F03E0E406E510E416ED0
:1003D000490E426E450E436E3E0E446E456AB9EFBD
:1003E00002F0040040500108D8A402EF02F0406A75
:1003F000420E416E7F0E426E400E436E446A456A65
:10040000B9EF02F0040040500208D8A415EF02F042
:10041000420E406E610E416E510E426E490E436EA9
:10042000460E446E456AB9EF02F0040040500308DE
:10043000D8A428EF02F0210E406E410E416E450E09
:10044000426E4B0E436E310E446E456AB9EF02F0B8
:10045000040040500408D8A43BEF02F0180E406E90
:10046000140E416E120E426E7F0E436E100E446EDD
:10047000456AB9EF02F0040040500508D8A44EEFD9
:1004800002F0270E406E450E416E450E426E450E3F
:10049000436E390E446E456AB9EF02F004004050D5
:1004A0000608D8A461EF02F03C0E406E4A0E416E81
:1004B000490E426E490E436E300E446E456AB9EFE6
:1004C00002F0040040500708D8A474EF02F0010EB7
:1004D000406E710E416E090E426E050E436E030EA4
:1004E000446E456AB9EF02F0040040500808D8A4F1
:1004F00087EF02F0360E406E490E416E490E426E95
:10050000490E436E360E446E456AB9EF02F00400A0
:1005100040500908D8A49AEF02F0060E406E490E2A
:10052000416E490E426E290E436E1E0E446E456AA0
:10053000B9EF02F0040040502008D8A4A8EF02F060
:10054000406A416A426A436A446A456AB9EF02F006
:10055000040040504708D8A4B9EF02F03E0E406EA8
:10056000410E416E490E426E490E436E7A0E446E44
:10057000456ABCEC02F012008196939640BE818CD5
:1005800040AE819C8182819240BC818C40AC819C38
:100590008182819240BA818C40AA819C8182819221
:1005A00040B8818C40A8819C8182819240B6818C28
:1005B00040A6819C8182819240B4818C40A4819C20
:1005C0008182819240B2818C40A2819C8182819201
:1005D00040B0818C40A0819C8182819241BE818CFF
:1005E00041AE819C8182819241BC818C41AC819CD5
:1005F0008182819241BA818C41AA819C81828192BF
:1006000041B8818C41A8819C8182819241B6818CC4
:1006100041A6819C8182819241B4818C41A4819CBC
:100620008182819241B2818C41A2819C818281929E
:1006300041B0818C41A0819C8182819242BE818C9B
:1006400042AE819C8182819242BC818C42AC819C71
:100650008182819242BA818C42AA819C818281925C
:1006600042B8818C42A8819C8182819242B6818C61
:1006700042A6819C8182819242B4818C42A4819C59
:100680008182819242B2818C42A2819C818281923C
:1006900042B0818C42A0819C8182819243BE818C38
:1006A00043AE819C8182819243BC818C43AC819C0E
:1006B0008182819243BA818C43AA819C81828192FA
:1006C00043B8818C43A8819C8182819243B6818CFE
:1006D00043A6819C8182819243B4818C43A4819CF6
:1006E0008182819243B2818C43A2819C81828192DA
:1006F00043B0818C43A0819C8182819244BE818CD5
:1007000044AE819C8182819244BC818C44AC819CAA
:100710008182819244BA818C44AA819C8182819297
:1007200044B8818C44A8819C8182819244B6818C9A
:1007300044A6819C8182819244B4818C44A4819C92
:100740008182819244B2818C44A2819C8182819277
:1007500044B0818C44A0819C8182819245BE818C71
:1007600045AE819C8182819245BC818C45AC819C47
:100770008182819245BA818C45AA819C8182819235
:1007800045B8818C45A8819C8182819245B6818C37
:1007900045A6819C8182819245B4818C45A4819C2F
:1007A0008182819245B2818C45A2819C8182819215
:1007B00045B0818C45A0819C8182819281869396EF
:1007C00012008196939640BE818C40AE819C8182BE
:1007D000819240BC818C40AC819C8182819240BAE4
:1007E000818C40AA819C8182819240B8818C40A8F2
:1007F000819C8182819240B6818C40A6819C8182BD
:10080000819240B4818C40A4819C8182819240B2CB
:10081000818C40A2819C8182819240B0818C40A0D9
:10082000819C81828192818693961200366A0400AF
:10083000030E365CD8B02AEF04F036503C0FE96E58
:10084000000EEA6AEA22EFCF40F0DEEC01F0362A31
:10085000D8A0EDD71200366A0400020E365CD8B07C
:100860003FEF04F036503C0FE96E000EEA6AEA22D0
:10087000EFCF40F0DEEC01F0362AD8A0EDD7120021
:10088000838A959A640E73EC00F0200E336E470E47
:100890003B6EFFEC06F0220E336E040E3B6EFFEC57
:1008A00006F054EC04F01200310E336E15EC07F034
:1008B000230E336E15EC07F0120049EC01F0040E24
:1008C000306E226A236ADCDF49EC01F0D3EC06F0DB
:1008D000140E73EC00F0302A290E336E15EC07F07D
:1008E0000400800E3B5CD8A083EF04F03B5000086E
:1008F000146E010ED8A0E804156E1450262615506B
:10090000272287EF04F03B502626E86A27222B0E89
:10091000336E15EC07F00400800E3B5CD8A09EEF10
:1009200004F03B500008146E010ED8A0E804156EC8
:100930001450282615502922A2EF04F03B502826F7
:10094000E86A29222D0E336E15EC07F00400800EA4
:100950003B5CD8A0B9EF04F03B500008146E010EC8
:10096000D8A0E804156E14502A2615502B22BDEF8E
:1009700004F03B502A26E86A2B2204003050050878
:10098000D8A400EF05F0306A26C020F027C021F07F
:1009900001EC05F0080E396E020E3A6E7FEC01F0A4
:1009A00076EC05F02B0E396EDAEC05F028C020F05D
:1009B00029C021F001EC05F0080E396E030E3A6EE5
:1009C0007FEC01F076EC05F0330E396EDAEC05F0D1
:1009D0002AC020F02BC021F001EC05F0080E396E82
:1009E000040E3A6E7FEC01F076EC05F03A0E396EAB
:1009F000DAEC05F0266A276A286A296A2A6A2B6ACD
:100A000067D720C008F021C009F0120E046E056AF5
:100A1000BEEC00F0146E07C015F014C002F015C053
:100A200003F0050E046E056AA6EC00F0206E03C00C
:100A300021F020C008F021C009F0050E046E056AFF
:100A4000BEEC00F0146E07C015F014C002F015C023
:100A500003F0360E046E056AA6EC00F0146E03C0B7
:100A600015F014C002F015C003F0120E046E056AF2
:100A7000A6EC00F0386E0400060E385CD8A043EFF8
:100A800005F0050E386E20C008F021C009F0050EF3
:100A9000046E056ABEEC00F0146E07C015F014C0B9
:100AA00002F015C003F0060E046E056AA6EC00F015
:100AB000146E03C015F014C002F015C003F0120E3E
:100AC000046E056AA6EC00F0146E03C015F038C081
:100AD00008F0096A090E046E056ABEEC00F0166E95
:100AE00007C017F01650145C2C6E120020C002F0E4
:100AF00021C003F0E80E046E030E056EA6EC00F0B4
:100B00003C6E20C002F021C003F0640E046E056A42
:100B1000A6EC00F0146E03C015F03CC008F0096AA2
:100B20000A0E046E056ABEEC00F0166E07C017F0E0
:100B30001650145C3D6E20C002F021C003F00A0E76
:100B4000046E056AA6EC00F0146E03C015F03CC0FC
:100B500008F0096A640E046E056ABEEC00F0166EB9
:100B600007C017F01650145C166E17501558176E04
:100B70003DC008F0096A0A0E046E056ABEEC00F07A
:100B8000186E07C019F01850165C3E6E3CC040F05D
:100B9000DEEC01F081849394400E406E12DE406AD8
:100BA00010DE3DC040F0DEEC01F03EC040F0DEEC77
:100BB00001F012000400010E385CD8B0EAEF05F035
:100BC000060E3A6E7FEC01F02CC040F02AEC06F0E5
:100BD00007EF06F03B6A3804146E156A000E155ACA
:100BE0003BC002F0036A15C005F0145093EC00F00E
:100BF000D8A407EF06F03B5006083A6E7FEC01F0F0
:100C0000080E406E2AEC06F03B2AD8A0E4D7040078
:100C1000010E385CD8A016EF06F0385006083A6E80
:100C20007FEC01F02CC040F02AEC06F038283B6E37
:100C30000400060E3B5CD8B029EF06F03B500608D6
:100C40003A6E7FEC01F0406A2AEC06F03B2AD8A00D
:100C5000EFD71200040040500008D8A438EF06F087
:100C6000406A416A426A436A446A456AD0EF06F0C4
:100C7000040040500108D8A44CEF06F0800E406EEE
:100C8000800E416E800E426E800E436E800E446E6A
:100C9000800E456ED0EF06F0040040500208D8A444
:100CA00060EF06F0C00E406EC00E416EC00E426E88
:100CB000C00E436EC00E446EC00E456ED0EF06F0FF
:100CC000040040500308D8A474EF06F0E00E406E14
:100CD000E00E416EE00E426EE00E436EE00E446E9A
:100CE000E00E456ED0EF06F0040040500408D8A492
:100CF00088EF06F0F00E406EF00E416EF00E426E80
:100D0000F00E436EF00E446EF00E456ED0EF06F01E
:100D1000040040500508D8A49CEF06F0F80E406E81
:100D2000F80E416EF80E426EF80E436EF80E446EE9
:100D3000F80E456ED0EF06F0040040500608D8A427
:100D4000B0EF06F0FC0E406EFC0E416EFC0E426EE3
:100D5000FC0E436EFC0E446EFC0E456ED0EF06F0AA
:100D6000040040500708D8A4C4EF06F0FE0E406E01
:100D7000FE0E416EFE0E426EFE0E436EFE0E446E81
:100D8000FE0E456ED0EF06F0040040500808D8A4CF
:100D9000D0EF06F04068416842684368446845689F
:100DA000BCEC02F01200420E396E010E3A6E7FEC7E
:100DB00001F04068810E416E810E426E436A446AC2
:100DC000456ABCEC02F0020E3B6E0400070E3B5C71
:100DD000D8B0FEEF06F0420E396E3BC03AF07FEC21
:100DE00001F04068800E416E800E426E436A446A94
:100DF000456ABCEC02F03B2AD8A0E7D71200820E6D
:100E00001C6E0F0E1E6E800E1A6E830E1D6E0F0E60
:100E10001F6E100E1B6E35501EEC00F033501EEC92
:100E200000F03B501CEC00F01200820E1C6E0F0E06
:100E30001E6E800E1A6E830E1D6E0F0E1F6E100E2C
:100E40001B6E34501EEC00F033501EEC00F003EC2F
:060E500000F03B6E1200F1
:020000040030CA
:0300010088180F4D
:020005008581F3
:060008000FC00FE00F40E5
:00000001FF
